{
  "contractName": "BankContract",
  "abi": [
    {
      "inputs": [],
      "payable": false,
      "stateMutability": "nonpayable",
      "type": "constructor",
      "signature": "constructor"
    },
    {
      "anonymous": false,
      "inputs": [
        {
          "indexed": false,
          "name": "to",
          "type": "address"
        },
        {
          "indexed": false,
          "name": "from",
          "type": "address"
        },
        {
          "indexed": false,
          "name": "samuTokens",
          "type": "uint256"
        }
      ],
      "name": "onTransferSamuTokens",
      "type": "event",
      "signature": "0x4ef702822481a6dae69a0bb7a4a15d04d64eff67087326f08a48cdd9cbfe5090"
    },
    {
      "constant": false,
      "inputs": [
        {
          "name": "_name",
          "type": "string"
        }
      ],
      "name": "createAccountBank",
      "outputs": [],
      "payable": false,
      "stateMutability": "nonpayable",
      "type": "function",
      "signature": "0x8e665cec"
    },
    {
      "constant": true,
      "inputs": [],
      "name": "getBalance",
      "outputs": [
        {
          "name": "",
          "type": "uint256"
        }
      ],
      "payable": false,
      "stateMutability": "view",
      "type": "function",
      "signature": "0x12065fe0"
    },
    {
      "constant": true,
      "inputs": [],
      "name": "getAccountsAddress",
      "outputs": [
        {
          "name": "",
          "type": "address[]"
        }
      ],
      "payable": false,
      "stateMutability": "view",
      "type": "function",
      "signature": "0x34844c89"
    },
    {
      "constant": false,
      "inputs": [
        {
          "name": "_to",
          "type": "address"
        },
        {
          "name": "_samuTokens",
          "type": "uint256"
        }
      ],
      "name": "transferSamuTokens",
      "outputs": [],
      "payable": false,
      "stateMutability": "nonpayable",
      "type": "function",
      "signature": "0x65f20dd9"
    },
    {
      "constant": true,
      "inputs": [],
      "name": "isOwner",
      "outputs": [
        {
          "name": "",
          "type": "bool"
        }
      ],
      "payable": false,
      "stateMutability": "view",
      "type": "function",
      "signature": "0x8f32d59b"
    },
    {
      "constant": false,
      "inputs": [
        {
          "name": "_samuTokens",
          "type": "uint256"
        }
      ],
      "name": "mint",
      "outputs": [],
      "payable": false,
      "stateMutability": "nonpayable",
      "type": "function",
      "signature": "0xa0712d68"
    }
  ],
  "bytecode": "0x608060405234801561001057600080fd5b5061005e6040805190810160405280600581526020017f4f776e65720000000000000000000000000000000000000000000000000000008152506100eb640100000000026401000000009004565b6064600160003373ffffffffffffffffffffffffffffffffffffffff1673ffffffffffffffffffffffffffffffffffffffff16815260200190815260200160002060020181905550336000806101000a81548173ffffffffffffffffffffffffffffffffffffffff021916908373ffffffffffffffffffffffffffffffffffffffff16021790555061038d565b600260003373ffffffffffffffffffffffffffffffffffffffff1673ffffffffffffffffffffffffffffffffffffffff16815260200190815260200160002060009054906101000a900460ff1615151561014457600080fd5b6060604051908101604052808281526020013373ffffffffffffffffffffffffffffffffffffffff1681526020016000815250600160003373ffffffffffffffffffffffffffffffffffffffff1673ffffffffffffffffffffffffffffffffffffffff16815260200190815260200160002060008201518160000190805190602001906101d29291906102e8565b5060208201518160010160006101000a81548173ffffffffffffffffffffffffffffffffffffffff021916908373ffffffffffffffffffffffffffffffffffffffff160217905550604082015181600201559050506001600260003373ffffffffffffffffffffffffffffffffffffffff1673ffffffffffffffffffffffffffffffffffffffff16815260200190815260200160002060006101000a81548160ff02191690831515021790555060033390806001815401808255809150509060018203906000526020600020016000909192909190916101000a81548173ffffffffffffffffffffffffffffffffffffffff021916908373ffffffffffffffffffffffffffffffffffffffff1602179055505050565b828054600181600116156101000203166002900490600052602060002090601f016020900481019282601f1061032957805160ff1916838001178555610357565b82800160010185558215610357579182015b8281111561035657825182559160200191906001019061033b565b5b5090506103649190610368565b5090565b61038a91905b8082111561038657600081600090555060010161036e565b5090565b90565b61094b8061039c6000396000f3fe608060405260043610610078576000357c0100000000000000000000000000000000000000000000000000000000900463ffffffff16806312065fe01461007d57806334844c89146100a857806365f20dd9146101145780638e665cec1461016f5780638f32d59b14610237578063a0712d6814610266575b600080fd5b34801561008957600080fd5b506100926102a1565b6040518082815260200191505060405180910390f35b3480156100b457600080fd5b506100bd610343565b6040518080602001828103825283818151815260200191508051906020019060200280838360005b838110156101005780820151818401526020810190506100e5565b505050509050019250505060405180910390f35b34801561012057600080fd5b5061016d6004803603604081101561013757600080fd5b81019080803573ffffffffffffffffffffffffffffffffffffffff169060200190929190803590602001909291905050506103d1565b005b34801561017b57600080fd5b506102356004803603602081101561019257600080fd5b81019080803590602001906401000000008111156101af57600080fd5b8201836020820111156101c157600080fd5b803590602001918460018302840111640100000000831117156101e357600080fd5b91908080601f016020809104026020016040519081016040528093929190818152602001838380828437600081840152601f19601f820116905080830192505050505050509192919290505050610567565b005b34801561024357600080fd5b5061024c610764565b604051808215151515815260200191505060405180910390f35b34801561027257600080fd5b5061029f6004803603602081101561028957600080fd5b81019080803590602001909291905050506107cc565b005b6000600260003373ffffffffffffffffffffffffffffffffffffffff1673ffffffffffffffffffffffffffffffffffffffff16815260200190815260200160002060009054906101000a900460ff1615156102fb57600080fd5b600160003373ffffffffffffffffffffffffffffffffffffffff1673ffffffffffffffffffffffffffffffffffffffff16815260200190815260200160002060020154905090565b606060038054806020026020016040519081016040528092919081815260200182805480156103c757602002820191906000526020600020905b8160009054906101000a900473ffffffffffffffffffffffffffffffffffffffff1673ffffffffffffffffffffffffffffffffffffffff168152602001906001019080831161037d575b5050505050905090565b8080600160003373ffffffffffffffffffffffffffffffffffffffff1673ffffffffffffffffffffffffffffffffffffffff168152602001908152602001600020600201541015151561042357600080fd5b81600160008573ffffffffffffffffffffffffffffffffffffffff1673ffffffffffffffffffffffffffffffffffffffff1681526020019081526020016000206002016000828254019250508190555081600160003373ffffffffffffffffffffffffffffffffffffffff1673ffffffffffffffffffffffffffffffffffffffff168152602001908152602001600020600201600082825403925050819055507f4ef702822481a6dae69a0bb7a4a15d04d64eff67087326f08a48cdd9cbfe5090833384604051808473ffffffffffffffffffffffffffffffffffffffff1673ffffffffffffffffffffffffffffffffffffffff1681526020018373ffffffffffffffffffffffffffffffffffffffff1673ffffffffffffffffffffffffffffffffffffffff168152602001828152602001935050505060405180910390a1505050565b600260003373ffffffffffffffffffffffffffffffffffffffff1673ffffffffffffffffffffffffffffffffffffffff16815260200190815260200160002060009054906101000a900460ff161515156105c057600080fd5b6060604051908101604052808281526020013373ffffffffffffffffffffffffffffffffffffffff1681526020016000815250600160003373ffffffffffffffffffffffffffffffffffffffff1673ffffffffffffffffffffffffffffffffffffffff168152602001908152602001600020600082015181600001908051906020019061064e92919061087a565b5060208201518160010160006101000a81548173ffffffffffffffffffffffffffffffffffffffff021916908373ffffffffffffffffffffffffffffffffffffffff160217905550604082015181600201559050506001600260003373ffffffffffffffffffffffffffffffffffffffff1673ffffffffffffffffffffffffffffffffffffffff16815260200190815260200160002060006101000a81548160ff02191690831515021790555060033390806001815401808255809150509060018203906000526020600020016000909192909190916101000a81548173ffffffffffffffffffffffffffffffffffffffff021916908373ffffffffffffffffffffffffffffffffffffffff1602179055505050565b600080600090503373ffffffffffffffffffffffffffffffffffffffff166000809054906101000a900473ffffffffffffffffffffffffffffffffffffffff1673ffffffffffffffffffffffffffffffffffffffff1614156107c557600190505b8091505090565b6000809054906101000a900473ffffffffffffffffffffffffffffffffffffffff1673ffffffffffffffffffffffffffffffffffffffff163373ffffffffffffffffffffffffffffffffffffffff1614151561082757600080fd5b80600160003373ffffffffffffffffffffffffffffffffffffffff1673ffffffffffffffffffffffffffffffffffffffff1681526020019081526020016000206002016000828254019250508190555050565b828054600181600116156101000203166002900490600052602060002090601f016020900481019282601f106108bb57805160ff19168380011785556108e9565b828001600101855582156108e9579182015b828111156108e85782518255916020019190600101906108cd565b5b5090506108f691906108fa565b5090565b61091c91905b80821115610918576000816000905550600101610900565b5090565b9056fea165627a7a72305820be5c7577b0a6898c1b94eccbccdcd671bee21cb846a9bf966aeb7e89fffe878b0029",
  "source": "pragma solidity >= 0.4.22 < 0.6.0;\ncontract BankContract {\n    struct ClientAccount {\n        string propertaryName;\n        address propetary;\n        uint balance;\n    }\n    address owner;\n    mapping (address => ClientAccount) clientAccounts;\n    mapping (address => bool) clientAccountsExist;\n    address[] clientAccountsAddress;\n\n    event onTransferSamuTokens(address to, address from, uint samuTokens);\n\n    modifier hasBalance(uint _samuTokens) {\n        require(clientAccounts[msg.sender].balance >= _samuTokens);\n        _;\n    }\n\n    constructor() public {\n        createAccountBank(\"Owner\");\n        clientAccounts[msg.sender].balance = 100;\n        owner = msg.sender;\n    }\n\n    function createAccountBank(string memory _name) public {\n        require(!clientAccountsExist[msg.sender]);\n        clientAccounts[msg.sender] = ClientAccount(_name, msg.sender, 0);\n        clientAccountsExist[msg.sender] = true;\n        clientAccountsAddress.push(msg.sender);\n    }\n\n    function getBalance() public view returns(uint) {\n        require(clientAccountsExist[msg.sender]);\n        return clientAccounts[msg.sender].balance;\n    }\n\n    function getAccountsAddress() public view returns(address[] memory) {\n        return clientAccountsAddress;\n    }\n\n    function transferSamuTokens(address _to, uint _samuTokens) public hasBalance(_samuTokens) {\n        clientAccounts[_to].balance += _samuTokens;\n        clientAccounts[msg.sender].balance -= _samuTokens;\n        emit onTransferSamuTokens(_to, msg.sender, _samuTokens);\n    }\n\n    function isOwner() public view returns(bool) {\n        bool result = false;\n        if (owner == msg.sender) {\n            result = true;\n        }\n        return result;\n    }\n\n    function mint(uint _samuTokens) public {\n        require(msg.sender == owner);\n        clientAccounts[msg.sender].balance += _samuTokens;\n    }\n}",
  "sourcePath": "/Users/samuelsanchezlopez/Documents/Recursos_programacion/ethereum-training/samuTokens-DApp/samuTokens-back/contracts/BankContract.sol",
  "compiler": {
    "name": "solc",
    "version": "0.5.0+commit.1d4f565a.Emscripten.clang"
  },
  "schemaVersion": "3.0.1",
  "updatedAt": "2019-04-23T08:33:13.114Z",
  "devdoc": {
    "methods": {}
  },
  "userdoc": {
    "methods": {}
  }
}